{
  "contractName": "Voting",
  "abi": [
    {
      "inputs": [],
      "stateMutability": "nonpayable",
      "type": "constructor"
    },
    {
      "anonymous": false,
      "inputs": [
        {
          "indexed": true,
          "internalType": "uint256",
          "name": "proposalIndex",
          "type": "uint256"
        },
        {
          "indexed": false,
          "internalType": "string",
          "name": "name",
          "type": "string"
        }
      ],
      "name": "ProposalAdded",
      "type": "event"
    },
    {
      "anonymous": false,
      "inputs": [
        {
          "indexed": true,
          "internalType": "uint256",
          "name": "proposalIndex",
          "type": "uint256"
        },
        {
          "indexed": false,
          "internalType": "bool",
          "name": "isActive",
          "type": "bool"
        }
      ],
      "name": "ProposalStatusChanged",
      "type": "event"
    },
    {
      "anonymous": false,
      "inputs": [
        {
          "indexed": true,
          "internalType": "address",
          "name": "voter",
          "type": "address"
        },
        {
          "indexed": true,
          "internalType": "uint256",
          "name": "proposalIndex",
          "type": "uint256"
        },
        {
          "indexed": false,
          "internalType": "uint256",
          "name": "timestamp",
          "type": "uint256"
        }
      ],
      "name": "Voted",
      "type": "event"
    },
    {
      "anonymous": false,
      "inputs": [
        {
          "indexed": true,
          "internalType": "address",
          "name": "voter",
          "type": "address"
        },
        {
          "indexed": false,
          "internalType": "string",
          "name": "name",
          "type": "string"
        }
      ],
      "name": "VoterAdded",
      "type": "event"
    },
    {
      "anonymous": false,
      "inputs": [
        {
          "indexed": true,
          "internalType": "address",
          "name": "voter",
          "type": "address"
        }
      ],
      "name": "VoterRemoved",
      "type": "event"
    },
    {
      "anonymous": false,
      "inputs": [
        {
          "indexed": false,
          "internalType": "uint256",
          "name": "startTime",
          "type": "uint256"
        },
        {
          "indexed": false,
          "internalType": "uint256",
          "name": "endTime",
          "type": "uint256"
        }
      ],
      "name": "VotingTimeSet",
      "type": "event"
    },
    {
      "inputs": [],
      "name": "admin",
      "outputs": [
        {
          "internalType": "address",
          "name": "",
          "type": "address"
        }
      ],
      "stateMutability": "view",
      "type": "function",
      "constant": true
    },
    {
      "inputs": [
        {
          "internalType": "uint256",
          "name": "",
          "type": "uint256"
        }
      ],
      "name": "proposals",
      "outputs": [
        {
          "internalType": "string",
          "name": "name",
          "type": "string"
        },
        {
          "internalType": "string",
          "name": "description",
          "type": "string"
        },
        {
          "internalType": "uint256",
          "name": "voteCount",
          "type": "uint256"
        },
        {
          "internalType": "bool",
          "name": "isActive",
          "type": "bool"
        }
      ],
      "stateMutability": "view",
      "type": "function",
      "constant": true
    },
    {
      "inputs": [
        {
          "internalType": "address",
          "name": "",
          "type": "address"
        }
      ],
      "name": "voters",
      "outputs": [
        {
          "internalType": "bool",
          "name": "isRegistered",
          "type": "bool"
        },
        {
          "internalType": "bool",
          "name": "hasVoted",
          "type": "bool"
        },
        {
          "internalType": "uint256",
          "name": "voteIndex",
          "type": "uint256"
        },
        {
          "internalType": "string",
          "name": "voterName",
          "type": "string"
        }
      ],
      "stateMutability": "view",
      "type": "function",
      "constant": true
    },
    {
      "inputs": [],
      "name": "votingActive",
      "outputs": [
        {
          "internalType": "bool",
          "name": "",
          "type": "bool"
        }
      ],
      "stateMutability": "view",
      "type": "function",
      "constant": true
    },
    {
      "inputs": [],
      "name": "votingEnd",
      "outputs": [
        {
          "internalType": "uint256",
          "name": "",
          "type": "uint256"
        }
      ],
      "stateMutability": "view",
      "type": "function",
      "constant": true
    },
    {
      "inputs": [],
      "name": "votingStart",
      "outputs": [
        {
          "internalType": "uint256",
          "name": "",
          "type": "uint256"
        }
      ],
      "stateMutability": "view",
      "type": "function",
      "constant": true
    },
    {
      "inputs": [
        {
          "internalType": "uint256",
          "name": "_startTime",
          "type": "uint256"
        },
        {
          "internalType": "uint256",
          "name": "_endTime",
          "type": "uint256"
        }
      ],
      "name": "setVotingPeriod",
      "outputs": [],
      "stateMutability": "nonpayable",
      "type": "function"
    },
    {
      "inputs": [
        {
          "internalType": "address",
          "name": "_voter",
          "type": "address"
        },
        {
          "internalType": "string",
          "name": "_name",
          "type": "string"
        }
      ],
      "name": "addVoter",
      "outputs": [],
      "stateMutability": "nonpayable",
      "type": "function"
    },
    {
      "inputs": [
        {
          "internalType": "address",
          "name": "_voter",
          "type": "address"
        }
      ],
      "name": "removeVoter",
      "outputs": [],
      "stateMutability": "nonpayable",
      "type": "function"
    },
    {
      "inputs": [
        {
          "internalType": "string",
          "name": "_name",
          "type": "string"
        },
        {
          "internalType": "string",
          "name": "_description",
          "type": "string"
        }
      ],
      "name": "addProposal",
      "outputs": [],
      "stateMutability": "nonpayable",
      "type": "function"
    },
    {
      "inputs": [
        {
          "internalType": "uint256",
          "name": "_proposalIndex",
          "type": "uint256"
        }
      ],
      "name": "toggleProposalStatus",
      "outputs": [],
      "stateMutability": "nonpayable",
      "type": "function"
    },
    {
      "inputs": [
        {
          "internalType": "uint256",
          "name": "_proposalIndex",
          "type": "uint256"
        }
      ],
      "name": "vote",
      "outputs": [],
      "stateMutability": "nonpayable",
      "type": "function"
    },
    {
      "inputs": [],
      "name": "getProposals",
      "outputs": [
        {
          "components": [
            {
              "internalType": "string",
              "name": "name",
              "type": "string"
            },
            {
              "internalType": "string",
              "name": "description",
              "type": "string"
            },
            {
              "internalType": "uint256",
              "name": "voteCount",
              "type": "uint256"
            },
            {
              "internalType": "bool",
              "name": "isActive",
              "type": "bool"
            }
          ],
          "internalType": "struct Voting.Proposal[]",
          "name": "",
          "type": "tuple[]"
        }
      ],
      "stateMutability": "view",
      "type": "function",
      "constant": true
    },
    {
      "inputs": [],
      "name": "getVoterCount",
      "outputs": [
        {
          "internalType": "uint256",
          "name": "",
          "type": "uint256"
        }
      ],
      "stateMutability": "view",
      "type": "function",
      "constant": true
    },
    {
      "inputs": [],
      "name": "getVotingStatus",
      "outputs": [
        {
          "internalType": "bool",
          "name": "isActive",
          "type": "bool"
        },
        {
          "internalType": "uint256",
          "name": "timeRemaining",
          "type": "uint256"
        }
      ],
      "stateMutability": "view",
      "type": "function",
      "constant": true
    },
    {
      "inputs": [
        {
          "internalType": "address",
          "name": "_voter",
          "type": "address"
        }
      ],
      "name": "getVoterInfo",
      "outputs": [
        {
          "components": [
            {
              "internalType": "bool",
              "name": "isRegistered",
              "type": "bool"
            },
            {
              "internalType": "bool",
              "name": "hasVoted",
              "type": "bool"
            },
            {
              "internalType": "uint256",
              "name": "voteIndex",
              "type": "uint256"
            },
            {
              "internalType": "string",
              "name": "voterName",
              "type": "string"
            }
          ],
          "internalType": "struct Voting.Voter",
          "name": "",
          "type": "tuple"
        }
      ],
      "stateMutability": "view",
      "type": "function",
      "constant": true
    },
    {
      "inputs": [],
      "name": "getProposalsCount",
      "outputs": [
        {
          "internalType": "uint256",
          "name": "",
          "type": "uint256"
        }
      ],
      "stateMutability": "view",
      "type": "function",
      "constant": true
    },
    {
      "inputs": [],
      "name": "votingOpen",
      "outputs": [
        {
          "internalType": "bool",
          "name": "",
          "type": "bool"
        }
      ],
      "stateMutability": "view",
      "type": "function",
      "constant": true
    }
  ],
  "bytecode": "0x608060405234801561001057600080fd5b50336000806101000a81548173ffffffffffffffffffffffffffffffffffffffff021916908373ffffffffffffffffffffffffffffffffffffffff1602179055506000600660006101000a81548160ff0219169083151502179055506128458061007b6000396000f3fe608060405234801561001057600080fd5b50600436106101165760003560e01c806385a38635116100a2578063a15a36c711610071578063a15a36c7146102c1578063a3ec138d146102dd578063a95824b414610310578063d9e95a981461032e578063f851a4401461034a57610116565b806385a386351461023957806386c1ff681461025757806398e527d3146102735780639ed1f2551461029157610116565b806323d1c95e116100e957806323d1c95e146101a6578063408e2727146101c2578063581c281c146101e0578063600eff9a146101ff57806362564c481461021b57610116565b80630121b93f1461011b578063013cf08b14610137578063101158af1461016a57806311174a2914610188575b600080fd5b61013560048036038101906101309190611bf7565b610368565b005b610151600480360381019061014c9190611bf7565b61074d565b60405161016194939291906122ea565b60405180910390f35b6101726108aa565b60405161017f91906124ff565b60405180910390f35b6101906108b0565b60405161019d91906124ff565b60405180910390f35b6101c060048036038101906101bb9190611b8b565b6108bd565b005b6101ca610a4e565b6040516101d79190612238565b60405180910390f35b6101e8610a61565b6040516101f692919061229f565b60405180910390f35b61021960048036038101906102149190611bf7565b610aac565b005b610223610cd0565b6040516102309190612216565b60405180910390f35b610241610e78565b60405161024e91906124ff565b60405180910390f35b610271600480360381019061026c9190611b0e565b610e7e565b005b61027b611319565b60405161028891906124ff565b60405180910390f35b6102ab60048036038101906102a69190611b0e565b611326565b6040516102b891906124dd565b60405180910390f35b6102db60048036038101906102d69190611c20565b611451565b005b6102f760048036038101906102f29190611b0e565b6115ca565b6040516103079493929190612253565b60405180910390f35b61031861169c565b6040516103259190612238565b60405180910390f35b61034860048036038101906103439190611b37565b6116a5565b005b610352611949565b60405161035f91906121fb565b60405180910390f35b600660009054906101000a900460ff166103b7576040517f08c379a00000000000000000000000000000000000000000000000000000000081526004016103ae9061237d565b60405180910390fd5b60055442106103fb576040517f08c379a00000000000000000000000000000000000000000000000000000000081526004016103f29061245d565b60405180910390fd5b600160003373ffffffffffffffffffffffffffffffffffffffff1673ffffffffffffffffffffffffffffffffffffffff16815260200190815260200160002060000160009054906101000a900460ff1661048a576040517f08c379a00000000000000000000000000000000000000000000000000000000081526004016104819061235d565b60405180910390fd5b600160003373ffffffffffffffffffffffffffffffffffffffff1673ffffffffffffffffffffffffffffffffffffffff16815260200190815260200160002060000160019054906101000a900460ff161561051a576040517f08c379a0000000000000000000000000000000000000000000000000000000008152600401610511906124bd565b60405180910390fd5b6003805490508110610561576040517f08c379a00000000000000000000000000000000000000000000000000000000081526004016105589061249d565b60405180910390fd5b6003818154811061059b577f4e487b7100000000000000000000000000000000000000000000000000000000600052603260045260246000fd5b906000526020600020906004020160030160009054906101000a900460ff166105f9576040517f08c379a00000000000000000000000000000000000000000000000000000000081526004016105f09061243d565b60405180910390fd5b60018060003373ffffffffffffffffffffffffffffffffffffffff1673ffffffffffffffffffffffffffffffffffffffff16815260200190815260200160002060000160016101000a81548160ff02191690831515021790555080600160003373ffffffffffffffffffffffffffffffffffffffff1673ffffffffffffffffffffffffffffffffffffffff16815260200190815260200160002060010181905550600381815481106106d4577f4e487b7100000000000000000000000000000000000000000000000000000000600052603260045260246000fd5b906000526020600020906004020160020160008154809291906106f6906126fa565b9190505550803373ffffffffffffffffffffffffffffffffffffffff167fea66f58e474bc09f580000e81f31b334d171db387d0c6098ba47bd897741679b4260405161074291906124ff565b60405180910390a350565b6003818154811061075d57600080fd5b9060005260206000209060040201600091509050806000018054610780906126c8565b80601f01602080910402602001604051908101604052809291908181526020018280546107ac906126c8565b80156107f95780601f106107ce576101008083540402835291602001916107f9565b820191906000526020600020905b8154815290600101906020018083116107dc57829003601f168201915b50505050509080600101805461080e906126c8565b80601f016020809104026020016040519081016040528092919081815260200182805461083a906126c8565b80156108875780601f1061085c57610100808354040283529160200191610887565b820191906000526020600020905b81548152906001019060200180831161086a57829003601f168201915b5050505050908060020154908060030160009054906101000a900460ff16905084565b60045481565b6000600280549050905090565b60008054906101000a900473ffffffffffffffffffffffffffffffffffffffff1673ffffffffffffffffffffffffffffffffffffffff163373ffffffffffffffffffffffffffffffffffffffff161461094b576040517f08c379a00000000000000000000000000000000000000000000000000000000081526004016109429061241d565b60405180910390fd5b600360405180608001604052808481526020018381526020016000815260200160011515815250908060018154018082558091505060019003906000526020600020906004020160009091909190915060008201518160000190805190602001906109b792919061196d565b5060208201518160010190805190602001906109d492919061196d565b506040820151816002015560608201518160030160006101000a81548160ff02191690831515021790555050506001600380549050610a13919061260a565b7ff970aa486598017b8116c2beb18c50d4584ecbc3c688817f59b26796725f31bf83604051610a4291906122c8565b60405180910390a25050565b600660009054906101000a900460ff1681565b600080600660009054906101000a900460ff161580610a8257506005544210155b15610a935760008091509150610aa8565b600142600554610aa3919061260a565b915091505b9091565b60008054906101000a900473ffffffffffffffffffffffffffffffffffffffff1673ffffffffffffffffffffffffffffffffffffffff163373ffffffffffffffffffffffffffffffffffffffff1614610b3a576040517f08c379a0000000000000000000000000000000000000000000000000000000008152600401610b319061241d565b60405180910390fd5b6003805490508110610b81576040517f08c379a0000000000000000000000000000000000000000000000000000000008152600401610b789061247d565b60405180910390fd5b60038181548110610bbb577f4e487b7100000000000000000000000000000000000000000000000000000000600052603260045260246000fd5b906000526020600020906004020160030160009054906101000a900460ff161560038281548110610c15577f4e487b7100000000000000000000000000000000000000000000000000000000600052603260045260246000fd5b906000526020600020906004020160030160006101000a81548160ff021916908315150217905550807f68e3ce211a37937184ed2d0165534a314cff3c8b8bd7dcdd845523b07698450f60038381548110610c99577f4e487b7100000000000000000000000000000000000000000000000000000000600052603260045260246000fd5b906000526020600020906004020160030160009054906101000a900460ff16604051610cc59190612238565b60405180910390a250565b60606003805480602002602001604051908101604052809291908181526020016000905b82821015610e6f5783829060005260206000209060040201604051806080016040529081600082018054610d27906126c8565b80601f0160208091040260200160405190810160405280929190818152602001828054610d53906126c8565b8015610da05780601f10610d7557610100808354040283529160200191610da0565b820191906000526020600020905b815481529060010190602001808311610d8357829003601f168201915b50505050508152602001600182018054610db9906126c8565b80601f0160208091040260200160405190810160405280929190818152602001828054610de5906126c8565b8015610e325780601f10610e0757610100808354040283529160200191610e32565b820191906000526020600020905b815481529060010190602001808311610e1557829003601f168201915b50505050508152602001600282015481526020016003820160009054906101000a900460ff16151515158152505081526020019060010190610cf4565b50505050905090565b60055481565b60008054906101000a900473ffffffffffffffffffffffffffffffffffffffff1673ffffffffffffffffffffffffffffffffffffffff163373ffffffffffffffffffffffffffffffffffffffff1614610f0c576040517f08c379a0000000000000000000000000000000000000000000000000000000008152600401610f039061241d565b60405180910390fd5b600160008273ffffffffffffffffffffffffffffffffffffffff1673ffffffffffffffffffffffffffffffffffffffff16815260200190815260200160002060000160009054906101000a900460ff16610f9b576040517f08c379a0000000000000000000000000000000000000000000000000000000008152600401610f929061239d565b60405180910390fd5b600160008273ffffffffffffffffffffffffffffffffffffffff1673ffffffffffffffffffffffffffffffffffffffff16815260200190815260200160002060000160019054906101000a900460ff161561102b576040517f08c379a00000000000000000000000000000000000000000000000000000000081526004016110229061233d565b60405180910390fd5b600160008273ffffffffffffffffffffffffffffffffffffffff1673ffffffffffffffffffffffffffffffffffffffff168152602001908152602001600020600080820160006101000a81549060ff02191690556000820160016101000a81549060ff021916905560018201600090556002820160006110ab91906119f3565b505060005b6002805490508110156112d2578173ffffffffffffffffffffffffffffffffffffffff166002828154811061110e577f4e487b7100000000000000000000000000000000000000000000000000000000600052603260045260246000fd5b9060005260206000200160009054906101000a900473ffffffffffffffffffffffffffffffffffffffff1673ffffffffffffffffffffffffffffffffffffffff1614156112bf5760026001600280549050611169919061260a565b815481106111a0577f4e487b7100000000000000000000000000000000000000000000000000000000600052603260045260246000fd5b9060005260206000200160009054906101000a900473ffffffffffffffffffffffffffffffffffffffff1660028281548110611205577f4e487b7100000000000000000000000000000000000000000000000000000000600052603260045260246000fd5b9060005260206000200160006101000a81548173ffffffffffffffffffffffffffffffffffffffff021916908373ffffffffffffffffffffffffffffffffffffffff1602179055506002805480611285577f4e487b7100000000000000000000000000000000000000000000000000000000600052603160045260246000fd5b6001900381819060005260206000200160006101000a81549073ffffffffffffffffffffffffffffffffffffffff021916905590556112d2565b80806112ca906126fa565b9150506110b0565b508073ffffffffffffffffffffffffffffffffffffffff167fa14a79af012d1756818f9bd59ccfc9ad185a71df86b9392d9059d9e6faf6d64460405160405180910390a250565b6000600380549050905090565b61132e611a33565b600160008373ffffffffffffffffffffffffffffffffffffffff1673ffffffffffffffffffffffffffffffffffffffff1681526020019081526020016000206040518060800160405290816000820160009054906101000a900460ff161515151581526020016000820160019054906101000a900460ff16151515158152602001600182015481526020016002820180546113c8906126c8565b80601f01602080910402602001604051908101604052809291908181526020018280546113f4906126c8565b80156114415780601f1061141657610100808354040283529160200191611441565b820191906000526020600020905b81548152906001019060200180831161142457829003601f168201915b5050505050815250509050919050565b60008054906101000a900473ffffffffffffffffffffffffffffffffffffffff1673ffffffffffffffffffffffffffffffffffffffff163373ffffffffffffffffffffffffffffffffffffffff16146114df576040517f08c379a00000000000000000000000000000000000000000000000000000000081526004016114d69061241d565b60405180910390fd5b818111611521576040517f08c379a0000000000000000000000000000000000000000000000000000000008152600401611518906123fd565b60405180910390fd5b42821015611564576040517f08c379a000000000000000000000000000000000000000000000000000000000815260040161155b906123bd565b60405180910390fd5b81600481905550806005819055506001600660006101000a81548160ff0219169083151502179055507f40c66ce823c3067a3fe8a7b7a31c95588aaf37f26b6932ec0224ac76d3f1318d82826040516115be92919061251a565b60405180910390a15050565b60016020528060005260406000206000915090508060000160009054906101000a900460ff16908060000160019054906101000a900460ff1690806001015490806002018054611619906126c8565b80601f0160208091040260200160405190810160405280929190818152602001828054611645906126c8565b80156116925780601f1061166757610100808354040283529160200191611692565b820191906000526020600020905b81548152906001019060200180831161167557829003601f168201915b5050505050905084565b60006001905090565b60008054906101000a900473ffffffffffffffffffffffffffffffffffffffff1673ffffffffffffffffffffffffffffffffffffffff163373ffffffffffffffffffffffffffffffffffffffff1614611733576040517f08c379a000000000000000000000000000000000000000000000000000000000815260040161172a9061241d565b60405180910390fd5b600160008373ffffffffffffffffffffffffffffffffffffffff1673ffffffffffffffffffffffffffffffffffffffff16815260200190815260200160002060000160009054906101000a900460ff16156117c3576040517f08c379a00000000000000000000000000000000000000000000000000000000081526004016117ba906123dd565b60405180910390fd5b60405180608001604052806001151581526020016000151581526020016000815260200182815250600160008473ffffffffffffffffffffffffffffffffffffffff1673ffffffffffffffffffffffffffffffffffffffff16815260200190815260200160002060008201518160000160006101000a81548160ff02191690831515021790555060208201518160000160016101000a81548160ff02191690831515021790555060408201518160010155606082015181600201908051906020019061189092919061196d565b509050506002829080600181540180825580915050600190039060005260206000200160009091909190916101000a81548173ffffffffffffffffffffffffffffffffffffffff021916908373ffffffffffffffffffffffffffffffffffffffff1602179055508173ffffffffffffffffffffffffffffffffffffffff167fb7af70b5f2929cdedf85e0ffc3c772e36dc72f1e5d74e6af9bafbceab180dc088260405161193d91906122c8565b60405180910390a25050565b60008054906101000a900473ffffffffffffffffffffffffffffffffffffffff1681565b828054611979906126c8565b90600052602060002090601f01602090048101928261199b57600085556119e2565b82601f106119b457805160ff19168380011785556119e2565b828001600101855582156119e2579182015b828111156119e15782518255916020019190600101906119c6565b5b5090506119ef9190611a5f565b5090565b5080546119ff906126c8565b6000825580601f10611a115750611a30565b601f016020900490600052602060002090810190611a2f9190611a5f565b5b50565b604051806080016040528060001515815260200160001515815260200160008152602001606081525090565b5b80821115611a78576000816000905550600101611a60565b5090565b6000611a8f611a8a84612574565b612543565b905082815260208101848484011115611aa757600080fd5b611ab2848285612686565b509392505050565b600081359050611ac9816127e1565b92915050565b600082601f830112611ae057600080fd5b8135611af0848260208601611a7c565b91505092915050565b600081359050611b08816127f8565b92915050565b600060208284031215611b2057600080fd5b6000611b2e84828501611aba565b91505092915050565b60008060408385031215611b4a57600080fd5b6000611b5885828601611aba565b925050602083013567ffffffffffffffff811115611b7557600080fd5b611b8185828601611acf565b9150509250929050565b60008060408385031215611b9e57600080fd5b600083013567ffffffffffffffff811115611bb857600080fd5b611bc485828601611acf565b925050602083013567ffffffffffffffff811115611be157600080fd5b611bed85828601611acf565b9150509250929050565b600060208284031215611c0957600080fd5b6000611c1784828501611af9565b91505092915050565b60008060408385031215611c3357600080fd5b6000611c4185828601611af9565b9250506020611c5285828601611af9565b9150509250929050565b6000611c688383612110565b905092915050565b611c798161263e565b82525050565b6000611c8a826125b4565b611c9481856125d7565b935083602082028501611ca6856125a4565b8060005b85811015611ce25784840389528151611cc38582611c5c565b9450611cce836125ca565b925060208a01995050600181019050611caa565b50829750879550505050505092915050565b611cfd81612650565b82525050565b611d0c81612650565b82525050565b6000611d1d826125bf565b611d2781856125e8565b9350611d37818560208601612695565b611d40816127d0565b840191505092915050565b6000611d56826125bf565b611d6081856125f9565b9350611d70818560208601612695565b611d79816127d0565b840191505092915050565b6000611d916021836125f9565b91507f43616e6e6f742072656d6f766520766f7465722077686f2068617320766f746560008301527f64000000000000000000000000000000000000000000000000000000000000006020830152604082019050919050565b6000611df7601e836125f9565b91507f596f7520617265206e6f74207265676973746572656420746f20766f746500006000830152602082019050919050565b6000611e37601e836125f9565b91507f566f74696e67206973206e6f742063757272656e746c792061637469766500006000830152602082019050919050565b6000611e776014836125f9565b91507f566f746572206e6f7420726567697374657265640000000000000000000000006000830152602082019050919050565b6000611eb76020836125f9565b91507f53746172742074696d65206d75737420626520696e20746865206675747572656000830152602082019050919050565b6000611ef7601b836125f9565b91507f566f74657220697320616c7265616479207265676973746572656400000000006000830152602082019050919050565b6000611f376013836125f9565b91507f496e76616c69642074696d6520706572696f64000000000000000000000000006000830152602082019050919050565b6000611f776022836125f9565b91507f4f6e6c792061646d696e2063616e20706572666f726d2074686973206163746960008301527f6f6e0000000000000000000000000000000000000000000000000000000000006020830152604082019050919050565b6000611fdd6016836125f9565b91507f50726f706f73616c206973206e6f7420616374697665000000000000000000006000830152602082019050919050565b600061201d6017836125f9565b91507f566f74696e6720706572696f642068617320656e6465640000000000000000006000830152602082019050919050565b600061205d6016836125f9565b91507f496e76616c69642070726f706f73616c20696e646578000000000000000000006000830152602082019050919050565b600061209d6010836125f9565b91507f496e76616c69642070726f706f73616c000000000000000000000000000000006000830152602082019050919050565b60006120dd6016836125f9565b91507f596f75206861766520616c726561647920766f746564000000000000000000006000830152602082019050919050565b6000608083016000830151848203600086015261212d8282611d12565b915050602083015184820360208601526121478282611d12565b915050604083015161215c60408601826121dd565b50606083015161216f6060860182611cf4565b508091505092915050565b60006080830160008301516121926000860182611cf4565b5060208301516121a56020860182611cf4565b5060408301516121b860408601826121dd565b50606083015184820360608601526121d08282611d12565b9150508091505092915050565b6121e68161267c565b82525050565b6121f58161267c565b82525050565b60006020820190506122106000830184611c70565b92915050565b600060208201905081810360008301526122308184611c7f565b905092915050565b600060208201905061224d6000830184611d03565b92915050565b60006080820190506122686000830187611d03565b6122756020830186611d03565b61228260408301856121ec565b81810360608301526122948184611d4b565b905095945050505050565b60006040820190506122b46000830185611d03565b6122c160208301846121ec565b9392505050565b600060208201905081810360008301526122e28184611d4b565b905092915050565b600060808201905081810360008301526123048187611d4b565b905081810360208301526123188186611d4b565b905061232760408301856121ec565b6123346060830184611d03565b95945050505050565b6000602082019050818103600083015261235681611d84565b9050919050565b6000602082019050818103600083015261237681611dea565b9050919050565b6000602082019050818103600083015261239681611e2a565b9050919050565b600060208201905081810360008301526123b681611e6a565b9050919050565b600060208201905081810360008301526123d681611eaa565b9050919050565b600060208201905081810360008301526123f681611eea565b9050919050565b6000602082019050818103600083015261241681611f2a565b9050919050565b6000602082019050818103600083015261243681611f6a565b9050919050565b6000602082019050818103600083015261245681611fd0565b9050919050565b6000602082019050818103600083015261247681612010565b9050919050565b6000602082019050818103600083015261249681612050565b9050919050565b600060208201905081810360008301526124b681612090565b9050919050565b600060208201905081810360008301526124d6816120d0565b9050919050565b600060208201905081810360008301526124f7818461217a565b905092915050565b600060208201905061251460008301846121ec565b92915050565b600060408201905061252f60008301856121ec565b61253c60208301846121ec565b9392505050565b6000604051905081810181811067ffffffffffffffff8211171561256a576125696127a1565b5b8060405250919050565b600067ffffffffffffffff82111561258f5761258e6127a1565b5b601f19601f8301169050602081019050919050565b6000819050602082019050919050565b600081519050919050565b600081519050919050565b6000602082019050919050565b600082825260208201905092915050565b600082825260208201905092915050565b600082825260208201905092915050565b60006126158261267c565b91506126208361267c565b92508282101561263357612632612743565b5b828203905092915050565b60006126498261265c565b9050919050565b60008115159050919050565b600073ffffffffffffffffffffffffffffffffffffffff82169050919050565b6000819050919050565b82818337600083830152505050565b60005b838110156126b3578082015181840152602081019050612698565b838111156126c2576000848401525b50505050565b600060028204905060018216806126e057607f821691505b602082108114156126f4576126f3612772565b5b50919050565b60006127058261267c565b91507fffffffffffffffffffffffffffffffffffffffffffffffffffffffffffffffff82141561273857612737612743565b5b600182019050919050565b7f4e487b7100000000000000000000000000000000000000000000000000000000600052601160045260246000fd5b7f4e487b7100000000000000000000000000000000000000000000000000000000600052602260045260246000fd5b7f4e487b7100000000000000000000000000000000000000000000000000000000600052604160045260246000fd5b6000601f19601f8301169050919050565b6127ea8161263e565b81146127f557600080fd5b50565b6128018161267c565b811461280c57600080fd5b5056fea26469706673582212205d9eca39e9a2cc0b8d24b16df6cbcfd2d25daa31f508c25bd89eeafe20c0146164736f6c63430008000033",
  "immutableReferences": {},
  "source": "// SPDX-License-Identifier: MIT\npragma solidity ^0.8.0;\n\ncontract Voting {\n    struct Voter {\n        bool isRegistered;\n        bool hasVoted;\n        uint voteIndex;\n        string voterName;   // Added voter name\n    }\n\n    struct Proposal {\n        string name;\n        string description; // Added description\n        uint voteCount;\n        bool isActive;      // Added status\n    }\n\n    address public admin;\n    mapping(address => Voter) public voters;\n    address[] private voterAddresses;\n    Proposal[] public proposals;\n    \n    uint public votingStart;\n    uint public votingEnd;\n    bool public votingActive;\n\n    event VoterAdded(address indexed voter, string name);\n    event VoterRemoved(address indexed voter);\n    event Voted(address indexed voter, uint indexed proposalIndex, uint timestamp);\n    event ProposalAdded(uint indexed proposalIndex, string name);\n    event ProposalStatusChanged(uint indexed proposalIndex, bool isActive);\n    event VotingTimeSet(uint startTime, uint endTime);\n\n    modifier onlyAdmin() {\n        require(msg.sender == admin, \"Only admin can perform this action\");\n        _;\n    }\n\n    modifier onlyDuringVotingPeriod() {\n        require(votingActive, \"Voting is not currently active\");\n        require(block.timestamp < votingEnd, \"Voting period has ended\");\n        _;\n    }\n\n    constructor() {\n        admin = msg.sender;\n        votingActive = false;\n    }\n\n    function setVotingPeriod(uint _startTime, uint _endTime) public onlyAdmin {\n        require(_endTime > _startTime, \"Invalid time period\");\n        require(_startTime >= block.timestamp, \"Start time must be in the future\");\n        \n        votingStart = _startTime;\n        votingEnd = _endTime;\n        votingActive = true;\n        \n        emit VotingTimeSet(_startTime, _endTime);\n    }\n\n    function addVoter(address _voter, string memory _name) public onlyAdmin {\n        require(!voters[_voter].isRegistered, \"Voter is already registered\");\n        \n        voters[_voter] = Voter({\n            isRegistered: true,\n            hasVoted: false,\n            voteIndex: 0,\n            voterName: _name\n        });\n        \n        voterAddresses.push(_voter);\n        emit VoterAdded(_voter, _name);\n    }\n\n    function removeVoter(address _voter) public onlyAdmin {\n        require(voters[_voter].isRegistered, \"Voter not registered\");\n        require(!voters[_voter].hasVoted, \"Cannot remove voter who has voted\");\n        \n        delete voters[_voter];\n        \n        // Remove from voterAddresses array\n        for (uint i = 0; i < voterAddresses.length; i++) {\n            if (voterAddresses[i] == _voter) {\n                voterAddresses[i] = voterAddresses[voterAddresses.length - 1];\n                voterAddresses.pop();\n                break;\n            }\n        }\n        \n        emit VoterRemoved(_voter);\n    }\n\n    function addProposal(string memory _name, string memory _description) public onlyAdmin {\n        proposals.push(Proposal({\n            name: _name,\n            description: _description,\n            voteCount: 0,\n            isActive: true\n        }));\n        \n        emit ProposalAdded(proposals.length - 1, _name);\n    }\n\n    function toggleProposalStatus(uint _proposalIndex) public onlyAdmin {\n        require(_proposalIndex < proposals.length, \"Invalid proposal index\");\n        proposals[_proposalIndex].isActive = !proposals[_proposalIndex].isActive;\n        emit ProposalStatusChanged(_proposalIndex, proposals[_proposalIndex].isActive);\n    }\n\n    function vote(uint _proposalIndex) public onlyDuringVotingPeriod {\n        require(voters[msg.sender].isRegistered, \"You are not registered to vote\");\n        require(!voters[msg.sender].hasVoted, \"You have already voted\");\n        require(_proposalIndex < proposals.length, \"Invalid proposal\");\n        require(proposals[_proposalIndex].isActive, \"Proposal is not active\");\n\n        voters[msg.sender].hasVoted = true;\n        voters[msg.sender].voteIndex = _proposalIndex;\n        proposals[_proposalIndex].voteCount++;\n\n        emit Voted(msg.sender, _proposalIndex, block.timestamp);\n    }\n\n    // View functions\n    function getProposals() public view returns (Proposal[] memory) {\n        return proposals;\n    }\n\n    function getVoterCount() public view returns (uint) {\n        return voterAddresses.length;\n    }\n\n    function getVotingStatus() public view returns (bool isActive, uint timeRemaining) {\n        if (!votingActive || block.timestamp >= votingEnd) {\n            return (false, 0);\n        }\n        return (true, votingEnd - block.timestamp);\n    }\n\n    function getVoterInfo(address _voter) public view returns (Voter memory) {\n        return voters[_voter];\n    }\n    \n    function getProposalsCount() public view returns (uint256) {\n        return proposals.length;\n    }\n\n    function votingOpen() public view returns (bool) {\n        return true; // Modify based on your voting period logic\n    }\n}",
  "sourcePath": "/home/abguermez/Desktop/voting-app/contracts/Voting.sol",
  "compiler": {
    "name": "solc",
    "version": "0.8.0+commit.c7dfd78e.Emscripten.clang"
  },
  "schemaVersion": "3.4.16",
  "updatedAt": "2024-12-21T11:24:13.079Z",
  "networkType": "ethereum",
  "devdoc": {
    "kind": "dev",
    "methods": {},
    "version": 1
  },
  "userdoc": {
    "kind": "user",
    "methods": {},
    "version": 1
  }
}