{
  "contractName": "Voting",
  "abi": [
    {
      "inputs": [],
      "stateMutability": "nonpayable",
      "type": "constructor"
    },
    {
      "anonymous": false,
      "inputs": [
        {
          "indexed": true,
          "internalType": "uint256",
          "name": "proposalIndex",
          "type": "uint256"
        },
        {
          "indexed": false,
          "internalType": "string",
          "name": "name",
          "type": "string"
        }
      ],
      "name": "ProposalAdded",
      "type": "event"
    },
    {
      "anonymous": false,
      "inputs": [
        {
          "indexed": true,
          "internalType": "uint256",
          "name": "proposalIndex",
          "type": "uint256"
        },
        {
          "indexed": false,
          "internalType": "bool",
          "name": "isActive",
          "type": "bool"
        }
      ],
      "name": "ProposalStatusChanged",
      "type": "event"
    },
    {
      "anonymous": false,
      "inputs": [
        {
          "indexed": true,
          "internalType": "address",
          "name": "voter",
          "type": "address"
        },
        {
          "indexed": true,
          "internalType": "uint256",
          "name": "proposalIndex",
          "type": "uint256"
        },
        {
          "indexed": false,
          "internalType": "uint256",
          "name": "timestamp",
          "type": "uint256"
        }
      ],
      "name": "Voted",
      "type": "event"
    },
    {
      "anonymous": false,
      "inputs": [
        {
          "indexed": true,
          "internalType": "address",
          "name": "voter",
          "type": "address"
        },
        {
          "indexed": false,
          "internalType": "string",
          "name": "name",
          "type": "string"
        }
      ],
      "name": "VoterAdded",
      "type": "event"
    },
    {
      "anonymous": false,
      "inputs": [
        {
          "indexed": true,
          "internalType": "address",
          "name": "voter",
          "type": "address"
        }
      ],
      "name": "VoterRemoved",
      "type": "event"
    },
    {
      "anonymous": false,
      "inputs": [
        {
          "indexed": false,
          "internalType": "uint256",
          "name": "startTime",
          "type": "uint256"
        },
        {
          "indexed": false,
          "internalType": "uint256",
          "name": "endTime",
          "type": "uint256"
        }
      ],
      "name": "VotingTimeSet",
      "type": "event"
    },
    {
      "inputs": [],
      "name": "admin",
      "outputs": [
        {
          "internalType": "address",
          "name": "",
          "type": "address"
        }
      ],
      "stateMutability": "view",
      "type": "function",
      "constant": true
    },
    {
      "inputs": [
        {
          "internalType": "uint256",
          "name": "",
          "type": "uint256"
        }
      ],
      "name": "proposals",
      "outputs": [
        {
          "internalType": "string",
          "name": "name",
          "type": "string"
        },
        {
          "internalType": "string",
          "name": "description",
          "type": "string"
        },
        {
          "internalType": "uint256",
          "name": "voteCount",
          "type": "uint256"
        },
        {
          "internalType": "bool",
          "name": "isActive",
          "type": "bool"
        }
      ],
      "stateMutability": "view",
      "type": "function",
      "constant": true
    },
    {
      "inputs": [
        {
          "internalType": "address",
          "name": "",
          "type": "address"
        }
      ],
      "name": "voters",
      "outputs": [
        {
          "internalType": "bool",
          "name": "isRegistered",
          "type": "bool"
        },
        {
          "internalType": "bool",
          "name": "hasVoted",
          "type": "bool"
        },
        {
          "internalType": "uint256",
          "name": "voteIndex",
          "type": "uint256"
        },
        {
          "internalType": "string",
          "name": "voterName",
          "type": "string"
        }
      ],
      "stateMutability": "view",
      "type": "function",
      "constant": true
    },
    {
      "inputs": [],
      "name": "votingActive",
      "outputs": [
        {
          "internalType": "bool",
          "name": "",
          "type": "bool"
        }
      ],
      "stateMutability": "view",
      "type": "function",
      "constant": true
    },
    {
      "inputs": [],
      "name": "votingEnd",
      "outputs": [
        {
          "internalType": "uint256",
          "name": "",
          "type": "uint256"
        }
      ],
      "stateMutability": "view",
      "type": "function",
      "constant": true
    },
    {
      "inputs": [],
      "name": "votingStart",
      "outputs": [
        {
          "internalType": "uint256",
          "name": "",
          "type": "uint256"
        }
      ],
      "stateMutability": "view",
      "type": "function",
      "constant": true
    },
    {
      "inputs": [
        {
          "internalType": "uint256",
          "name": "_startTime",
          "type": "uint256"
        },
        {
          "internalType": "uint256",
          "name": "_endTime",
          "type": "uint256"
        }
      ],
      "name": "setVotingPeriod",
      "outputs": [],
      "stateMutability": "nonpayable",
      "type": "function"
    },
    {
      "inputs": [
        {
          "internalType": "address",
          "name": "_voter",
          "type": "address"
        },
        {
          "internalType": "string",
          "name": "_name",
          "type": "string"
        }
      ],
      "name": "addVoter",
      "outputs": [],
      "stateMutability": "nonpayable",
      "type": "function"
    },
    {
      "inputs": [
        {
          "internalType": "address",
          "name": "_voter",
          "type": "address"
        }
      ],
      "name": "removeVoter",
      "outputs": [],
      "stateMutability": "nonpayable",
      "type": "function"
    },
    {
      "inputs": [
        {
          "internalType": "string",
          "name": "_name",
          "type": "string"
        },
        {
          "internalType": "string",
          "name": "_description",
          "type": "string"
        }
      ],
      "name": "addProposal",
      "outputs": [],
      "stateMutability": "nonpayable",
      "type": "function"
    },
    {
      "inputs": [
        {
          "internalType": "uint256",
          "name": "_proposalIndex",
          "type": "uint256"
        }
      ],
      "name": "toggleProposalStatus",
      "outputs": [],
      "stateMutability": "nonpayable",
      "type": "function"
    },
    {
      "inputs": [
        {
          "internalType": "uint256",
          "name": "_proposalIndex",
          "type": "uint256"
        }
      ],
      "name": "vote",
      "outputs": [],
      "stateMutability": "nonpayable",
      "type": "function"
    },
    {
      "inputs": [],
      "name": "getProposals",
      "outputs": [
        {
          "components": [
            {
              "internalType": "string",
              "name": "name",
              "type": "string"
            },
            {
              "internalType": "string",
              "name": "description",
              "type": "string"
            },
            {
              "internalType": "uint256",
              "name": "voteCount",
              "type": "uint256"
            },
            {
              "internalType": "bool",
              "name": "isActive",
              "type": "bool"
            }
          ],
          "internalType": "struct Voting.Proposal[]",
          "name": "",
          "type": "tuple[]"
        }
      ],
      "stateMutability": "view",
      "type": "function",
      "constant": true
    },
    {
      "inputs": [],
      "name": "getVoterCount",
      "outputs": [
        {
          "internalType": "uint256",
          "name": "",
          "type": "uint256"
        }
      ],
      "stateMutability": "view",
      "type": "function",
      "constant": true
    },
    {
      "inputs": [],
      "name": "getVotingStatus",
      "outputs": [
        {
          "internalType": "bool",
          "name": "isActive",
          "type": "bool"
        },
        {
          "internalType": "uint256",
          "name": "timeRemaining",
          "type": "uint256"
        }
      ],
      "stateMutability": "pure",
      "type": "function",
      "constant": true
    },
    {
      "inputs": [
        {
          "internalType": "address",
          "name": "_voter",
          "type": "address"
        }
      ],
      "name": "getVoterInfo",
      "outputs": [
        {
          "components": [
            {
              "internalType": "bool",
              "name": "isRegistered",
              "type": "bool"
            },
            {
              "internalType": "bool",
              "name": "hasVoted",
              "type": "bool"
            },
            {
              "internalType": "uint256",
              "name": "voteIndex",
              "type": "uint256"
            },
            {
              "internalType": "string",
              "name": "voterName",
              "type": "string"
            }
          ],
          "internalType": "struct Voting.Voter",
          "name": "",
          "type": "tuple"
        }
      ],
      "stateMutability": "view",
      "type": "function",
      "constant": true
    },
    {
      "inputs": [],
      "name": "getProposalsCount",
      "outputs": [
        {
          "internalType": "uint256",
          "name": "",
          "type": "uint256"
        }
      ],
      "stateMutability": "view",
      "type": "function",
      "constant": true
    },
    {
      "inputs": [],
      "name": "votingOpen",
      "outputs": [
        {
          "internalType": "bool",
          "name": "",
          "type": "bool"
        }
      ],
      "stateMutability": "view",
      "type": "function",
      "constant": true
    }
  ],
  "bytecode": "0x60806040526001600660006101000a81548160ff02191690831515021790555034801561002b57600080fd5b50336000806101000a81548173ffffffffffffffffffffffffffffffffffffffff021916908373ffffffffffffffffffffffffffffffffffffffff1602179055506000600660006101000a81548160ff021916908315150217905550612558806100966000396000f3fe608060405234801561001057600080fd5b50600436106101165760003560e01c806385a38635116100a2578063a15a36c711610071578063a15a36c7146102c1578063a3ec138d146102dd578063a95824b414610310578063d9e95a981461032e578063f851a4401461034a57610116565b806385a386351461023957806386c1ff681461025757806398e527d3146102735780639ed1f2551461029157610116565b806323d1c95e116100e957806323d1c95e146101a6578063408e2727146101c2578063581c281c146101e0578063600eff9a146101ff57806362564c481461021b57610116565b80630121b93f1461011b578063013cf08b14610137578063101158af1461016a57806311174a2914610188575b600080fd5b61013560048036038101906101309190611a8a565b610368565b005b610151600480360381019061014c9190611a8a565b6106ba565b604051610161949392919061207d565b60405180910390f35b610172610817565b60405161017f9190612212565b60405180910390f35b61019061081d565b60405161019d9190612212565b60405180910390f35b6101c060048036038101906101bb9190611a1e565b61082a565b005b6101ca6109bb565b6040516101d79190611fcb565b60405180910390f35b6101e86109ce565b6040516101f6929190612032565b60405180910390f35b61021960048036038101906102149190611a8a565b6109df565b005b610223610c03565b6040516102309190611fa9565b60405180910390f35b610241610dab565b60405161024e9190612212565b60405180910390f35b610271600480360381019061026c91906119a1565b610db1565b005b61027b61124c565b6040516102889190612212565b60405180910390f35b6102ab60048036038101906102a691906119a1565b611259565b6040516102b891906121f0565b60405180910390f35b6102db60048036038101906102d69190611ab3565b611384565b005b6102f760048036038101906102f291906119a1565b61145d565b6040516103079493929190611fe6565b60405180910390f35b61031861152f565b6040516103259190611fcb565b60405180910390f35b610348600480360381019061034391906119ca565b611538565b005b6103526117dc565b60405161035f9190611f8e565b60405180910390f35b600160003373ffffffffffffffffffffffffffffffffffffffff1673ffffffffffffffffffffffffffffffffffffffff16815260200190815260200160002060000160009054906101000a900460ff166103f7576040517f08c379a00000000000000000000000000000000000000000000000000000000081526004016103ee906120f0565b60405180910390fd5b600160003373ffffffffffffffffffffffffffffffffffffffff1673ffffffffffffffffffffffffffffffffffffffff16815260200190815260200160002060000160019054906101000a900460ff1615610487576040517f08c379a000000000000000000000000000000000000000000000000000000000815260040161047e906121d0565b60405180910390fd5b60038054905081106104ce576040517f08c379a00000000000000000000000000000000000000000000000000000000081526004016104c5906121b0565b60405180910390fd5b60038181548110610508577f4e487b7100000000000000000000000000000000000000000000000000000000600052603260045260246000fd5b906000526020600020906004020160030160009054906101000a900460ff16610566576040517f08c379a000000000000000000000000000000000000000000000000000000000815260040161055d90612170565b60405180910390fd5b60018060003373ffffffffffffffffffffffffffffffffffffffff1673ffffffffffffffffffffffffffffffffffffffff16815260200190815260200160002060000160016101000a81548160ff02191690831515021790555080600160003373ffffffffffffffffffffffffffffffffffffffff1673ffffffffffffffffffffffffffffffffffffffff1681526020019081526020016000206001018190555060038181548110610641577f4e487b7100000000000000000000000000000000000000000000000000000000600052603260045260246000fd5b906000526020600020906004020160020160008154809291906106639061240d565b9190505550803373ffffffffffffffffffffffffffffffffffffffff167fea66f58e474bc09f580000e81f31b334d171db387d0c6098ba47bd897741679b426040516106af9190612212565b60405180910390a350565b600381815481106106ca57600080fd5b90600052602060002090600402016000915090508060000180546106ed906123db565b80601f0160208091040260200160405190810160405280929190818152602001828054610719906123db565b80156107665780601f1061073b57610100808354040283529160200191610766565b820191906000526020600020905b81548152906001019060200180831161074957829003601f168201915b50505050509080600101805461077b906123db565b80601f01602080910402602001604051908101604052809291908181526020018280546107a7906123db565b80156107f45780601f106107c9576101008083540402835291602001916107f4565b820191906000526020600020905b8154815290600101906020018083116107d757829003601f168201915b5050505050908060020154908060030160009054906101000a900460ff16905084565b60045481565b6000600280549050905090565b60008054906101000a900473ffffffffffffffffffffffffffffffffffffffff1673ffffffffffffffffffffffffffffffffffffffff163373ffffffffffffffffffffffffffffffffffffffff16146108b8576040517f08c379a00000000000000000000000000000000000000000000000000000000081526004016108af90612150565b60405180910390fd5b60036040518060800160405280848152602001838152602001600081526020016001151581525090806001815401808255809150506001900390600052602060002090600402016000909190919091506000820151816000019080519060200190610924929190611800565b506020820151816001019080519060200190610941929190611800565b506040820151816002015560608201518160030160006101000a81548160ff02191690831515021790555050506001600380549050610980919061231d565b7ff970aa486598017b8116c2beb18c50d4584ecbc3c688817f59b26796725f31bf836040516109af919061205b565b60405180910390a25050565b600660009054906101000a900460ff1681565b600080600162015180915091509091565b60008054906101000a900473ffffffffffffffffffffffffffffffffffffffff1673ffffffffffffffffffffffffffffffffffffffff163373ffffffffffffffffffffffffffffffffffffffff1614610a6d576040517f08c379a0000000000000000000000000000000000000000000000000000000008152600401610a6490612150565b60405180910390fd5b6003805490508110610ab4576040517f08c379a0000000000000000000000000000000000000000000000000000000008152600401610aab90612190565b60405180910390fd5b60038181548110610aee577f4e487b7100000000000000000000000000000000000000000000000000000000600052603260045260246000fd5b906000526020600020906004020160030160009054906101000a900460ff161560038281548110610b48577f4e487b7100000000000000000000000000000000000000000000000000000000600052603260045260246000fd5b906000526020600020906004020160030160006101000a81548160ff021916908315150217905550807f68e3ce211a37937184ed2d0165534a314cff3c8b8bd7dcdd845523b07698450f60038381548110610bcc577f4e487b7100000000000000000000000000000000000000000000000000000000600052603260045260246000fd5b906000526020600020906004020160030160009054906101000a900460ff16604051610bf89190611fcb565b60405180910390a250565b60606003805480602002602001604051908101604052809291908181526020016000905b82821015610da25783829060005260206000209060040201604051806080016040529081600082018054610c5a906123db565b80601f0160208091040260200160405190810160405280929190818152602001828054610c86906123db565b8015610cd35780601f10610ca857610100808354040283529160200191610cd3565b820191906000526020600020905b815481529060010190602001808311610cb657829003601f168201915b50505050508152602001600182018054610cec906123db565b80601f0160208091040260200160405190810160405280929190818152602001828054610d18906123db565b8015610d655780601f10610d3a57610100808354040283529160200191610d65565b820191906000526020600020905b815481529060010190602001808311610d4857829003601f168201915b50505050508152602001600282015481526020016003820160009054906101000a900460ff16151515158152505081526020019060010190610c27565b50505050905090565b60055481565b60008054906101000a900473ffffffffffffffffffffffffffffffffffffffff1673ffffffffffffffffffffffffffffffffffffffff163373ffffffffffffffffffffffffffffffffffffffff1614610e3f576040517f08c379a0000000000000000000000000000000000000000000000000000000008152600401610e3690612150565b60405180910390fd5b600160008273ffffffffffffffffffffffffffffffffffffffff1673ffffffffffffffffffffffffffffffffffffffff16815260200190815260200160002060000160009054906101000a900460ff16610ece576040517f08c379a0000000000000000000000000000000000000000000000000000000008152600401610ec590612110565b60405180910390fd5b600160008273ffffffffffffffffffffffffffffffffffffffff1673ffffffffffffffffffffffffffffffffffffffff16815260200190815260200160002060000160019054906101000a900460ff1615610f5e576040517f08c379a0000000000000000000000000000000000000000000000000000000008152600401610f55906120d0565b60405180910390fd5b600160008273ffffffffffffffffffffffffffffffffffffffff1673ffffffffffffffffffffffffffffffffffffffff168152602001908152602001600020600080820160006101000a81549060ff02191690556000820160016101000a81549060ff02191690556001820160009055600282016000610fde9190611886565b505060005b600280549050811015611205578173ffffffffffffffffffffffffffffffffffffffff1660028281548110611041577f4e487b7100000000000000000000000000000000000000000000000000000000600052603260045260246000fd5b9060005260206000200160009054906101000a900473ffffffffffffffffffffffffffffffffffffffff1673ffffffffffffffffffffffffffffffffffffffff1614156111f2576002600160028054905061109c919061231d565b815481106110d3577f4e487b7100000000000000000000000000000000000000000000000000000000600052603260045260246000fd5b9060005260206000200160009054906101000a900473ffffffffffffffffffffffffffffffffffffffff1660028281548110611138577f4e487b7100000000000000000000000000000000000000000000000000000000600052603260045260246000fd5b9060005260206000200160006101000a81548173ffffffffffffffffffffffffffffffffffffffff021916908373ffffffffffffffffffffffffffffffffffffffff16021790555060028054806111b8577f4e487b7100000000000000000000000000000000000000000000000000000000600052603160045260246000fd5b6001900381819060005260206000200160006101000a81549073ffffffffffffffffffffffffffffffffffffffff02191690559055611205565b80806111fd9061240d565b915050610fe3565b508073ffffffffffffffffffffffffffffffffffffffff167fa14a79af012d1756818f9bd59ccfc9ad185a71df86b9392d9059d9e6faf6d64460405160405180910390a250565b6000600380549050905090565b6112616118c6565b600160008373ffffffffffffffffffffffffffffffffffffffff1673ffffffffffffffffffffffffffffffffffffffff1681526020019081526020016000206040518060800160405290816000820160009054906101000a900460ff161515151581526020016000820160019054906101000a900460ff16151515158152602001600182015481526020016002820180546112fb906123db565b80601f0160208091040260200160405190810160405280929190818152602001828054611327906123db565b80156113745780601f1061134957610100808354040283529160200191611374565b820191906000526020600020905b81548152906001019060200180831161135757829003601f168201915b5050505050815250509050919050565b60008054906101000a900473ffffffffffffffffffffffffffffffffffffffff1673ffffffffffffffffffffffffffffffffffffffff163373ffffffffffffffffffffffffffffffffffffffff1614611412576040517f08c379a000000000000000000000000000000000000000000000000000000000815260040161140990612150565b60405180910390fd5b81600481905550806005819055507f40c66ce823c3067a3fe8a7b7a31c95588aaf37f26b6932ec0224ac76d3f1318d828260405161145192919061222d565b60405180910390a15050565b60016020528060005260406000206000915090508060000160009054906101000a900460ff16908060000160019054906101000a900460ff16908060010154908060020180546114ac906123db565b80601f01602080910402602001604051908101604052809291908181526020018280546114d8906123db565b80156115255780601f106114fa57610100808354040283529160200191611525565b820191906000526020600020905b81548152906001019060200180831161150857829003601f168201915b5050505050905084565b60006001905090565b60008054906101000a900473ffffffffffffffffffffffffffffffffffffffff1673ffffffffffffffffffffffffffffffffffffffff163373ffffffffffffffffffffffffffffffffffffffff16146115c6576040517f08c379a00000000000000000000000000000000000000000000000000000000081526004016115bd90612150565b60405180910390fd5b600160008373ffffffffffffffffffffffffffffffffffffffff1673ffffffffffffffffffffffffffffffffffffffff16815260200190815260200160002060000160009054906101000a900460ff1615611656576040517f08c379a000000000000000000000000000000000000000000000000000000000815260040161164d90612130565b60405180910390fd5b60405180608001604052806001151581526020016000151581526020016000815260200182815250600160008473ffffffffffffffffffffffffffffffffffffffff1673ffffffffffffffffffffffffffffffffffffffff16815260200190815260200160002060008201518160000160006101000a81548160ff02191690831515021790555060208201518160000160016101000a81548160ff021916908315150217905550604082015181600101556060820151816002019080519060200190611723929190611800565b509050506002829080600181540180825580915050600190039060005260206000200160009091909190916101000a81548173ffffffffffffffffffffffffffffffffffffffff021916908373ffffffffffffffffffffffffffffffffffffffff1602179055508173ffffffffffffffffffffffffffffffffffffffff167fb7af70b5f2929cdedf85e0ffc3c772e36dc72f1e5d74e6af9bafbceab180dc08826040516117d0919061205b565b60405180910390a25050565b60008054906101000a900473ffffffffffffffffffffffffffffffffffffffff1681565b82805461180c906123db565b90600052602060002090601f01602090048101928261182e5760008555611875565b82601f1061184757805160ff1916838001178555611875565b82800160010185558215611875579182015b82811115611874578251825591602001919060010190611859565b5b50905061188291906118f2565b5090565b508054611892906123db565b6000825580601f106118a457506118c3565b601f0160209004906000526020600020908101906118c291906118f2565b5b50565b604051806080016040528060001515815260200160001515815260200160008152602001606081525090565b5b8082111561190b5760008160009055506001016118f3565b5090565b600061192261191d84612287565b612256565b90508281526020810184848401111561193a57600080fd5b611945848285612399565b509392505050565b60008135905061195c816124f4565b92915050565b600082601f83011261197357600080fd5b813561198384826020860161190f565b91505092915050565b60008135905061199b8161250b565b92915050565b6000602082840312156119b357600080fd5b60006119c18482850161194d565b91505092915050565b600080604083850312156119dd57600080fd5b60006119eb8582860161194d565b925050602083013567ffffffffffffffff811115611a0857600080fd5b611a1485828601611962565b9150509250929050565b60008060408385031215611a3157600080fd5b600083013567ffffffffffffffff811115611a4b57600080fd5b611a5785828601611962565b925050602083013567ffffffffffffffff811115611a7457600080fd5b611a8085828601611962565b9150509250929050565b600060208284031215611a9c57600080fd5b6000611aaa8482850161198c565b91505092915050565b60008060408385031215611ac657600080fd5b6000611ad48582860161198c565b9250506020611ae58582860161198c565b9150509250929050565b6000611afb8383611ea3565b905092915050565b611b0c81612351565b82525050565b6000611b1d826122c7565b611b2781856122ea565b935083602082028501611b39856122b7565b8060005b85811015611b755784840389528151611b568582611aef565b9450611b61836122dd565b925060208a01995050600181019050611b3d565b50829750879550505050505092915050565b611b9081612363565b82525050565b611b9f81612363565b82525050565b6000611bb0826122d2565b611bba81856122fb565b9350611bca8185602086016123a8565b611bd3816124e3565b840191505092915050565b6000611be9826122d2565b611bf3818561230c565b9350611c038185602086016123a8565b611c0c816124e3565b840191505092915050565b6000611c2460218361230c565b91507f43616e6e6f742072656d6f766520766f7465722077686f2068617320766f746560008301527f64000000000000000000000000000000000000000000000000000000000000006020830152604082019050919050565b6000611c8a601e8361230c565b91507f596f7520617265206e6f74207265676973746572656420746f20766f746500006000830152602082019050919050565b6000611cca60148361230c565b91507f566f746572206e6f7420726567697374657265640000000000000000000000006000830152602082019050919050565b6000611d0a601b8361230c565b91507f566f74657220697320616c7265616479207265676973746572656400000000006000830152602082019050919050565b6000611d4a60228361230c565b91507f4f6e6c792061646d696e2063616e20706572666f726d2074686973206163746960008301527f6f6e0000000000000000000000000000000000000000000000000000000000006020830152604082019050919050565b6000611db060168361230c565b91507f50726f706f73616c206973206e6f7420616374697665000000000000000000006000830152602082019050919050565b6000611df060168361230c565b91507f496e76616c69642070726f706f73616c20696e646578000000000000000000006000830152602082019050919050565b6000611e3060108361230c565b91507f496e76616c69642070726f706f73616c000000000000000000000000000000006000830152602082019050919050565b6000611e7060168361230c565b91507f596f75206861766520616c726561647920766f746564000000000000000000006000830152602082019050919050565b60006080830160008301518482036000860152611ec08282611ba5565b91505060208301518482036020860152611eda8282611ba5565b9150506040830151611eef6040860182611f70565b506060830151611f026060860182611b87565b508091505092915050565b6000608083016000830151611f256000860182611b87565b506020830151611f386020860182611b87565b506040830151611f4b6040860182611f70565b5060608301518482036060860152611f638282611ba5565b9150508091505092915050565b611f798161238f565b82525050565b611f888161238f565b82525050565b6000602082019050611fa36000830184611b03565b92915050565b60006020820190508181036000830152611fc38184611b12565b905092915050565b6000602082019050611fe06000830184611b96565b92915050565b6000608082019050611ffb6000830187611b96565b6120086020830186611b96565b6120156040830185611f7f565b81810360608301526120278184611bde565b905095945050505050565b60006040820190506120476000830185611b96565b6120546020830184611f7f565b9392505050565b600060208201905081810360008301526120758184611bde565b905092915050565b600060808201905081810360008301526120978187611bde565b905081810360208301526120ab8186611bde565b90506120ba6040830185611f7f565b6120c76060830184611b96565b95945050505050565b600060208201905081810360008301526120e981611c17565b9050919050565b6000602082019050818103600083015261210981611c7d565b9050919050565b6000602082019050818103600083015261212981611cbd565b9050919050565b6000602082019050818103600083015261214981611cfd565b9050919050565b6000602082019050818103600083015261216981611d3d565b9050919050565b6000602082019050818103600083015261218981611da3565b9050919050565b600060208201905081810360008301526121a981611de3565b9050919050565b600060208201905081810360008301526121c981611e23565b9050919050565b600060208201905081810360008301526121e981611e63565b9050919050565b6000602082019050818103600083015261220a8184611f0d565b905092915050565b60006020820190506122276000830184611f7f565b92915050565b60006040820190506122426000830185611f7f565b61224f6020830184611f7f565b9392505050565b6000604051905081810181811067ffffffffffffffff8211171561227d5761227c6124b4565b5b8060405250919050565b600067ffffffffffffffff8211156122a2576122a16124b4565b5b601f19601f8301169050602081019050919050565b6000819050602082019050919050565b600081519050919050565b600081519050919050565b6000602082019050919050565b600082825260208201905092915050565b600082825260208201905092915050565b600082825260208201905092915050565b60006123288261238f565b91506123338361238f565b92508282101561234657612345612456565b5b828203905092915050565b600061235c8261236f565b9050919050565b60008115159050919050565b600073ffffffffffffffffffffffffffffffffffffffff82169050919050565b6000819050919050565b82818337600083830152505050565b60005b838110156123c65780820151818401526020810190506123ab565b838111156123d5576000848401525b50505050565b600060028204905060018216806123f357607f821691505b6020821081141561240757612406612485565b5b50919050565b60006124188261238f565b91507fffffffffffffffffffffffffffffffffffffffffffffffffffffffffffffffff82141561244b5761244a612456565b5b600182019050919050565b7f4e487b7100000000000000000000000000000000000000000000000000000000600052601160045260246000fd5b7f4e487b7100000000000000000000000000000000000000000000000000000000600052602260045260246000fd5b7f4e487b7100000000000000000000000000000000000000000000000000000000600052604160045260246000fd5b6000601f19601f8301169050919050565b6124fd81612351565b811461250857600080fd5b50565b6125148161238f565b811461251f57600080fd5b5056fea2646970667358221220ed6bb1ba5d63954d0de74ab0e9781f130b09140a96ab6e64536f91f1b717df4364736f6c63430008000033",
  "immutableReferences": {},
  "source": "// SPDX-License-Identifier: MIT\npragma solidity ^0.8.0;\n\ncontract Voting {\n    struct Voter {\n        bool isRegistered;\n        bool hasVoted;\n        uint voteIndex;\n        string voterName;   // Added voter name\n    }\n\n    struct Proposal {\n        string name;\n        string description; // Added description\n        uint voteCount;\n        bool isActive;      // Added status\n    }\n\n    address public admin;\n    mapping(address => Voter) public voters;    \n    address[] private voterAddresses;\n    Proposal[] public proposals;\n    \n    uint public votingStart;\n    uint public votingEnd;\n    bool public votingActive = true;\n\n    event VoterAdded(address indexed voter, string name);\n    event VoterRemoved(address indexed voter);\n    event Voted(address indexed voter, uint indexed proposalIndex, uint timestamp);\n    event ProposalAdded(uint indexed proposalIndex, string name);\n    event ProposalStatusChanged(uint indexed proposalIndex, bool isActive);\n    event VotingTimeSet(uint startTime, uint endTime);\n\n    modifier onlyAdmin() {\n        require(msg.sender == admin, \"Only admin can perform this action\");\n        _;\n    }\n\n    modifier onlyDuringVotingPeriod() {\n        _;\n    }\n\n    constructor() {\n        admin = msg.sender;\n        votingActive = false;\n    }\n\n    function setVotingPeriod(uint _startTime, uint _endTime) public onlyAdmin {\n        votingStart = _startTime;\n        votingEnd = _endTime;\n        emit VotingTimeSet(_startTime, _endTime);\n    }\n\n    function addVoter(address _voter, string memory _name) public onlyAdmin {\n        require(!voters[_voter].isRegistered, \"Voter is already registered\");\n        \n        voters[_voter] = Voter({\n            isRegistered: true,\n            hasVoted: false,\n            voteIndex: 0,\n            voterName: _name\n        });\n        \n        voterAddresses.push(_voter);\n        emit VoterAdded(_voter, _name);\n    }\n\n    function removeVoter(address _voter) public onlyAdmin {\n        require(voters[_voter].isRegistered, \"Voter not registered\");\n        require(!voters[_voter].hasVoted, \"Cannot remove voter who has voted\");\n        \n        delete voters[_voter];\n        \n        // Remove from voterAddresses array\n        for (uint i = 0; i < voterAddresses.length; i++) {\n            if (voterAddresses[i] == _voter) {\n                voterAddresses[i] = voterAddresses[voterAddresses.length - 1];\n                voterAddresses.pop();\n                break;\n            }\n        }\n        \n        emit VoterRemoved(_voter);\n    }\n\n    function addProposal(string memory _name, string memory _description) public onlyAdmin {\n        proposals.push(Proposal({\n            name: _name,\n            description: _description,\n            voteCount: 0,\n            isActive: true\n        }));\n        \n        emit ProposalAdded(proposals.length - 1, _name);\n    }\n\n    function toggleProposalStatus(uint _proposalIndex) public onlyAdmin {\n        require(_proposalIndex < proposals.length, \"Invalid proposal index\");\n        proposals[_proposalIndex].isActive = !proposals[_proposalIndex].isActive;\n        emit ProposalStatusChanged(_proposalIndex, proposals[_proposalIndex].isActive);\n    }\n\n    function vote(uint _proposalIndex) public onlyDuringVotingPeriod {\n        require(voters[msg.sender].isRegistered, \"You are not registered to vote\");\n        require(!voters[msg.sender].hasVoted, \"You have already voted\");\n        require(_proposalIndex < proposals.length, \"Invalid proposal\");\n        require(proposals[_proposalIndex].isActive, \"Proposal is not active\");\n\n        voters[msg.sender].hasVoted = true;\n        voters[msg.sender].voteIndex = _proposalIndex;\n        proposals[_proposalIndex].voteCount++;\n\n        emit Voted(msg.sender, _proposalIndex, block.timestamp);\n    }\n\n    // View functions\n    function getProposals() public view returns (Proposal[] memory) {\n        return proposals;\n    }\n\n    function getVoterCount() public view returns (uint) {\n        return voterAddresses.length;\n    }\n\n    function getVotingStatus() public pure returns (bool isActive, uint timeRemaining) {\n        return (true, 1 days); // Always return active with 1 day remaining\n    }\n\n    function getVoterInfo(address _voter) public view returns (Voter memory) {\n        return voters[_voter];\n    }\n    \n    function getProposalsCount() public view returns (uint256) {\n        return proposals.length;\n    }\n\n    function votingOpen() public view returns (bool) {\n        return true; // Modify based on your voting period logic\n    }\n}",
  "sourcePath": "/home/abguermez/Desktop/voting-app/contracts/Voting.sol",
  "compiler": {
    "name": "solc",
    "version": "0.8.0+commit.c7dfd78e.Emscripten.clang"
  },
  "schemaVersion": "3.4.16",
  "updatedAt": "2024-12-21T20:35:14.075Z",
  "networkType": "ethereum",
  "devdoc": {
    "kind": "dev",
    "methods": {},
    "version": 1
  },
  "userdoc": {
    "kind": "user",
    "methods": {},
    "version": 1
  }
}